{
  "contractName": "HelloWorld",
  "abi": [
    {
      "inputs": [],
      "stateMutability": "nonpayable",
      "type": "constructor"
    },
    {
      "inputs": [],
      "name": "greet",
      "outputs": [
        {
          "internalType": "string",
          "name": "",
          "type": "string"
        }
      ],
      "stateMutability": "view",
      "type": "function",
      "constant": true
    },
    {
      "inputs": [],
      "name": "getGreeting",
      "outputs": [
        {
          "internalType": "string",
          "name": "",
          "type": "string"
        }
      ],
      "stateMutability": "view",
      "type": "function",
      "constant": true
    },
    {
      "inputs": [
        {
          "internalType": "string",
          "name": "_name",
          "type": "string"
        }
      ],
      "name": "setGreeting",
      "outputs": [
        {
          "internalType": "bool",
          "name": "success",
          "type": "bool"
        }
      ],
      "stateMutability": "nonpayable",
      "type": "function"
    }
  ],
  "bytecode": "0x60c0604052600560808190526415dbdc9b1960da1b60a09081526100269160009190610066565b5034801561003357600080fd5b506040805180820190915260058082526415dbdc9b1960da1b602090920191825261006091600091610066565b5061013a565b828054610072906100ff565b90600052602060002090601f01602090048101928261009457600085556100da565b82601f106100ad57805160ff19168380011785556100da565b828001600101855582156100da579182015b828111156100da5782518255916020019190600101906100bf565b506100e69291506100ea565b5090565b5b808211156100e657600081556001016100eb565b60028104600182168061011357607f821691505b6020821081141561013457634e487b7160e01b600052602260045260246000fd5b50919050565b610601806101496000396000f3fe608060405234801561001057600080fd5b50600436106100415760003560e01c8063a413686214610046578063cfae32171461006f578063fe50cc7214610084575b600080fd5b610059610054366004610432565b61008c565b60405161006691906104d3565b60405180910390f35b6100776100b7565b60405161006691906104de565b610077610145565b60008082511161009b57600080fd5b81516100ae906000906020850190610399565b50600192915050565b600080546100c490610549565b80601f01602080910402602001604051908101604052809291908181526020018280546100f090610549565b801561013d5780601f106101125761010080835404028352916020019161013d565b820191906000526020600020905b81548152906001019060200180831161012057829003601f168201915b505050505081565b60606101fa6040518060400160405280600781526020016602432b6363796160cd1b8152506000805461017790610549565b80601f01602080910402602001604051908101604052809291908181526020018280546101a390610549565b80156101f05780601f106101c5576101008083540402835291602001916101f0565b820191906000526020600020905b8154815290600101906020018083116101d357829003601f168201915b50505050506101ff565b905090565b80518251606091849184916000916102179190610531565b67ffffffffffffffff81111561023d57634e487b7160e01b600052604160045260246000fd5b6040519080825280601f01601f191660200182016040528015610267576020820181803683370190505b509050806000805b85518210156102fb5785828151811061029857634e487b7160e01b600052603260045260246000fd5b01602001516001600160f81b03191683826102b281610584565b9350815181106102d257634e487b7160e01b600052603260045260246000fd5b60200101906001600160f81b031916908160001a905350816102f381610584565b92505061026f565b600091505b845182101561038c5784828151811061032957634e487b7160e01b600052603260045260246000fd5b01602001516001600160f81b031916838261034381610584565b93508151811061036357634e487b7160e01b600052603260045260246000fd5b60200101906001600160f81b031916908160001a9053508161038481610584565b925050610300565b5090979650505050505050565b8280546103a590610549565b90600052602060002090601f0160209004810192826103c7576000855561040d565b82601f106103e057805160ff191683800117855561040d565b8280016001018555821561040d579182015b8281111561040d5782518255916020019190600101906103f2565b5061041992915061041d565b5090565b5b80821115610419576000815560010161041e565b60006020808385031215610444578182fd5b823567ffffffffffffffff8082111561045b578384fd5b818501915085601f83011261046e578384fd5b813581811115610480576104806105b5565b604051601f8201601f19168101850183811182821017156104a3576104a36105b5565b60405281815283820185018810156104b9578586fd5b818585018683013790810190930193909352509392505050565b901515815260200190565b6000602080835283518082850152825b8181101561050a578581018301518582016040015282016104ee565b8181111561051b5783604083870101525b50601f01601f1916929092016040019392505050565b600082198211156105445761054461059f565b500190565b60028104600182168061055d57607f821691505b6020821081141561057e57634e487b7160e01b600052602260045260246000fd5b50919050565b60006000198214156105985761059861059f565b5060010190565b634e487b7160e01b600052601160045260246000fd5b634e487b7160e01b600052604160045260246000fdfea264697066735822122061cc17ea5cd4c9526a6bcb108d1582eef03d5549f0fbae2cc66ea31db6ec413964736f6c63430008000033",
  "immutableReferences": {},
  "source": "// SPDX-License-Identifier: MIT\r\npragma solidity ^0.8.0;\r\n\r\ncontract HelloWorld {\r\n    string public greet = \"World\";  //variable for storing name\r\n\r\n    constructor(){\r\n        greet = \"World\";\r\n    }\r\n\r\n    /** @dev Retrieve Message to Print\r\n      * @return The Message to Print, Hello, Concatenated with the User Name\r\n      */ \r\n    function getGreeting() public view returns(string memory){\r\n        return concat(\"Hello, \" , greet);\r\n    }\r\n\r\n        /** @dev Set the Name to Greet \r\n        * @param  _name  user name\r\n        * @return success Returns bool value (True or False) to indicate if save was successful or not\r\n        */\r\n    function setGreeting(string memory _name) public returns(bool success){\r\n        require(bytes(_name).length > 0);\r\n        greet= _name;\r\n        return true;\r\n    }\r\n\r\n    /** @dev Set the Name to Greet \r\n        * @param  _base  contains the base value \" Hello, \"\r\n        * @param  _value contains the name to append to message to display\r\n        * @return the concatenated string of _base+_value i.e. Hello, Name\r\n        */ \r\n    function concat(string memory _base, string memory _value) internal pure returns (string memory) {\r\n            bytes memory _baseBytes = bytes(_base);\r\n            bytes memory _valueBytes = bytes(_value);\r\n    \r\n            string memory _tmpValue = new string(_baseBytes.length + _valueBytes.length);\r\n            bytes memory _newValue = bytes(_tmpValue);\r\n    \r\n            uint i;\r\n            uint j;\r\n    \r\n            for(i=0; i<_baseBytes.length; i++) {\r\n                _newValue[j++] = _baseBytes[i];\r\n            }\r\n    \r\n            for(i=0; i<_valueBytes.length; i++) {\r\n                _newValue[j++] = _valueBytes[i];\r\n            }\r\n\r\n            return string(_newValue);\r\n        }\r\n}\r\n",
  "sourcePath": "F:\\bnbchain101course\\figmnet pathway\\learn-web3-dapp\\contracts\\bnbchain\\HelloWorld\\contracts\\HelloWorld.sol",
  "compiler": {
    "name": "solc",
    "version": "0.8.0+commit.c7dfd78e.Emscripten.clang"
  },
  "schemaVersion": "3.4.7",
  "updatedAt": "2023-01-04T20:10:46.198Z",
  "networkType": "ethereum",
  "devdoc": {
    "kind": "dev",
    "methods": {
      "getGreeting()": {
        "details": "Retrieve Message to Print",
        "returns": {
          "_0": "The Message to Print, Hello, Concatenated with the User Name"
        }
      },
      "setGreeting(string)": {
        "details": "Set the Name to Greet ",
        "params": {
          "_name": "user name"
        },
        "returns": {
          "success": "Returns bool value (True or False) to indicate if save was successful or not"
        }
      }
    },
    "version": 1
  },
  "userdoc": {
    "kind": "user",
    "methods": {},
    "version": 1
  }
}